:020000040800F2
:1000000028080020290200082F160008E51400081F
:100010002D1600081F040008391A0008000000000F
:10002000000000000000000000000000951600081D
:10003000B5040008000000003116000897160008FB
:10004000430200084302000843020008430200087C
:10005000430200084302000843020008430200086C
:10006000430200084302000843020008430200085C
:10007000210400084302000843020008430200086C
:10008000430200084302000843020008430200083C
:10009000430200084302000843020008430200082C
:1000A000430200084302000843020008430200081C
:1000B000430200084302000843020008430200080C
:1000C00043020008430200084302000843020008FC
:1000D000430200086D19000843020008791900085E
:1000E00043020008430200084302000843020008DC
:1000F00043020008430200084302000843020008CC
:1001000043020008430200084302000843020008BB
:1001100043020008430200084302000843020008AB
:10012000430200084302000843020008430200089B
:10013000430200084302000843020008430200088B
:10014000430200084302000843020008430200087B
:1001500043020008430200082D040008430200087F
:10016000430200084302000843020008430200085B
:100170004302000843020008430200080000000098
:10018000430200084302000800F002F800F03CF8C7
:100190000AA090E8000C82448344AAF10107DA45E2
:1001A00001D100F031F8AFF2090EBAE80F0013F0F8
:1001B000010F18BFFB1A43F001031847F41A00009F
:1001C000141B0000103A24BF78C878C1FAD852072F
:1001D00024BF30C830C144BF04680C6070470000C1
:1001E0000023002400250026103A28BF78C1FBD840
:1001F000520728BF30C148BF0B6070471FB501F0E0
:1002000041FD1FBD10B510BD00F0CFF81146FFF73E
:10021000F5FF01F093FC00F0EDF803B4FFF7F2FFF7
:1002200003BC00F0F5F80000094880470948004782
:10023000FEE7FEE7FEE7FEE7FEE7FEE7FEE7FEE796
:10024000FEE7FEE704480549054A064B70470000F3
:100250003117000889010008280200202808002022
:10026000280400202804002053EA020C00F06980D2
:100270002DE9F04B4FF00006002B1FBFB3FA83F5BA
:1002800003FA05F424FA05F65E4012BF1643B2FAEB
:1002900082F502FA05F4C5F120051EBF22FA05FC1D
:1002A00044EA0C04203556EA044C4FEA144418BFC3
:1002B000641C4FF000084FF00009904271EB030CF2
:1002C00039D3002919BFB1FA81F701FA07F6B0FA5C
:1002D00080F700FA07F6C7F120071EBF20FA07FCD7
:1002E00046EA0C062037B6FBF4FCA7EB0507103FE7
:1002F00007F01F0BCBF120060CFA0BFB2CFA06F6CD
:1003000044BFB3460026202FA4BF5E464FF0000B2B
:100310005BEA060C08BF4FF0010B19EB0B09ABFBB6
:10032000027C48EB0608C01B06FB02CC0BFB03CC8F
:1003300071EB0C01C1E70B46024641464846BDE859
:10034000F08B13B54FF000004FF00001AFF30080C9
:10035000BDE81C4070474FF0000200B513469446BC
:100360009646203922BFA0E80C50A0E80C50B1F10D
:100370002001BFF4F7AF090728BFA0E80C5048BF21
:100380000CC05DF804EB890028BF40F8042B08BFBF
:10039000704748BF20F8022B11F0804F18BF00F8BB
:1003A000012B7047704770477047754600F02CF876
:1003B000AE4605006946534620F00700854618B052
:1003C00020B5FFF73FFFBDE820404FF000064FF09B
:1003D00000074FF000084FF0000B21F00701AC467A
:1003E000ACE8C009ACE8C009ACE8C009ACE8C00999
:1003F0008D46704710B50446AFF300802046BDE837
:100400001040FFF70ABF000000487047C8010020F5
:1004100001491820ABBEFEE7260002007047FEE748
:10042000014800F0A5B8000004010020014800F0D8
:100430009FB80000A400002001681823CAB2103A37
:10044000B2FBF3F2054B6FF30901032A9B5CC36512
:1004500000D9091D81650846704700008E1C000800
:1004600010B5014600208B698A6A4FF0C07453B101
:10047000B3F5005F15D072B1012A0CD0022A0AD060
:10048000032A09D104E01AB1012A06D0022A03D1B5
:10049000C96AC90100D5012010BDC96AA142FAD0BC
:1004A00010BD002AF7D0012AF2D0022AF3D0032A85
:1004B000F3D010BD704772B6FEE72DE9F041044657
:1004C000876D00F08DFA064694F835000025022865
:1004D00006D08020606584F834500120BDE8F081AA
:1004E0002068016821F0160101602068416921F04F
:1004F00080014161206C08B9A06C20B120680168BE
:1005000021F0080101602068016821F0010101600B
:100510000CE000F065FA801B052807D920206065F3
:10052000032084F8350084F83450D7E72068006849
:10053000C007EED194F85C103F208840B8600120DD
:1005400084F8350084F834500020C7E790F835105F
:10055000022903D08021416501207047052180F8E0
:1005600035100068016821F001010160002070472A
:100570002DE9F84304464FF00009CDF80090634898
:100580004FF41651A56D0068B0FBF1F72E6894F892
:100590005C10082000FA01F131420FD021680A688E
:1005A00052070BD50A6822F004020A6094F85C1026
:1005B0008840A860606D40F00100606594F85C10B0
:1005C0004FF0010808FA01F0304208D0216849696B
:1005D000090604D5A860606D40F00200606594F8DB
:1005E0005C1004208840304208D0216809688907DF
:1005F00004D5A860606D40F00400606594F85C105C
:1006000010208840304218D021680968090714D5A5
:10061000A86020680168490304D50068000308D574
:10062000A16C07E00168C90503D4016821F0080145
:100630000160216C09B12046884794F85C102020A5
:100640008840304231D021680968C9062DD5A8609C
:1006500094F8350005282068016806D0490347D57D
:10066000006800031DD4616C1CE021F016010160DC
:100670002068416921F080014161206C08B9A06CBB
:1006800020B12068016821F00801016094F85C1035
:100690003F208840A86084F8358084F83490216D2C
:1006A0001FE0E16B09B120468847606D00282BD020
:1006B000606DC00714D0052084F8350020680168FB
:1006C00021F0010101600098401C0090B84203D85D
:1006D00020680068C007F6D184F8358084F834902B
:1006E000E16C002910D001B02046BDE8F043084776
:1006F0000168C905D5D4016821F01001016084F8B2
:10070000358084F83490CCE7BDE8F8830C000020F5
:100710002DE9F041044600F063F906465CB1022081
:1007200084F83500002584F834502068016821F0F1
:10073000010101600DE00120BDE8F08100F050F9F9
:10074000801B052805D920206065032084F835002A
:10075000F2E720680068C007F0D1226811682048DD
:100760000140D4E901031843D4E903363343184365
:1007700063691843A3691843E3691843236A18435C
:100780000843616A042903D1D4E90B1319430843D0
:10079000106020684069666A20F0070130460E4309
:1007A000012704280CD1A06A0643E06A40B1204624
:1007B000FFF756FE20B14020606584F83570BAE737
:1007C000206846612046FFF737FE94F85C203F2101
:1007D00091408160656584F835700020ACE70000C9
:1007E0003F8010F02DE9F84FDFF8BCA10022012571
:1007F00003264FF00F090AF1040BAAF1040E00BF03
:100800000B6805FA02F42340A34270D10F7907F078
:100810000307012F01D0022F16D187684FEA420843
:1008200006FA08FC27EA0C07D1F80CC00CFA08FC01
:100830004CEA070CC0F808C04768A7430C79C4F31A
:10084000001494403C4344600C79E443A4070AD06C
:10085000C4684FEA420C06FA0CF7BC438F6807FAEB
:100860000CF72743C7600C7904F00304022C12D163
:10087000D40800EB840CDCF820405707FF0E09FA7F
:1008800007F824EA0804D1F8108008FA07F848EAC3
:100890000408CCF8208004684FEA420C06FA0CF7F2
:1008A000BC430F7907F0030707FA0CF727430760EB
:1008B0004C6814F4403F70D03C4C276847F48047A4
:1008C0002760246822F0030704F480440094384C25
:1008D00007EB040CDCF8084897074FEA177809FA89
:1008E00008F7BC43334FB84202D1002724E054E05C
:1008F000314FB84201D101271EE0304FB84201D13B
:10090000022719E02E4FB84201D1032714E02D4FE2
:10091000B84201D104270FE02B4FB84201D105277F
:100920000AE02A4FB84201D1062705E0284FB84215
:1009300001D1072700E0082707FA08F72743CCF87A
:100940000878DAF800405746D1F804C09C435FEAC3
:10095000CC2C00D51C433C60DBF800405F46D1F84E
:1009600004C09C435FEA8C2C00D51C433C60DEF83D
:1009700000407746D1F804C09C435FEA8C3C00D528
:100980001C433C60084F083F3C68D1F804C09C43BE
:100990005FEACC3C00D51C433C60521C102AFFF49B
:1009A0002FAFBDE8F88F0000083C014044380240FA
:1009B00000300140000002400004024000080240F4
:1009C000000C0240001002400014024000180240D7
:1009D000001C02400AB1816170470904FBE7000076
:1009E00001488068704700000000002002488168CC
:1009F0000278114481607047000000200B4810B558
:100A0000016841F400710160016841F48061016096
:100A1000016841F480710160032000F06FF800204C
:100A200000F006F800F024F8002010BD003C024061
:100A300070B50D4D04464FF47A712878B1FBF0F093
:100A40000A490968B1FBF0F000F00CFB48B9102C22
:100A500007D200222146501E00F030F800206C60C2
:100A600070BD012070BD0000000000200C000020BF
:100A70000A4808B5016841F480410160006800F44B
:100A8000804000900548001F016841F080510160DE
:100A9000006800F08050009008BD0000443802401B
:100AA000002809DB00F01F0201219140400980006D
:100AB00000F1E020C0F8001170470000F0B40E4BC8
:100AC0001B680C46C3F30223C3F10705042D00D9AC
:100AD0000425191D072901D2002300E0DB1E012691
:100AE00006FA05F1491E214099409E40761E1640A7
:100AF0003143F0BC00F0A1BF0CED00E0064900F06E
:100B0000070208684FF6FF03184040EA0220034A34
:100B100010430860704700000CED00E00000FA058B
:100B20002DE9F0470E46050065D0DFF81481D8F8AE
:100B30000000F7B200F00700B04207D288F800705A
:100B4000D8F8000000F00700B04254D128683D4CAE
:100B5000810712D5400703D5206840F4E05020609B
:100B60002878000703D5206840F4604020602068A2
:100B7000A96820F0F000084320602878C0072DD035
:100B8000304968680839012812D0022813D0032898
:100B900011D00968890700292DDA216821F00301A5
:100BA00001432160FFF71CFF814641F2883A0EE0C5
:100BB00009688903EFE709688901ECE7FFF710FF8F
:100BC000A0EB0901514502D90320BDE8F087206858
:100BD000696800F00C00B0EB810FEFD1D8F800107D
:100BE000404601F00701B14207D90770006800F0E4
:100BF0000700B04201D00120E7E72878400705D57B
:100C00002068E96820F4E050084320602878000755
:100C100006D52068296920F4604040EAC1002060C0
:100C200000F038F82168084AC1F30311515CC8404C
:100C30000649086006480068FFF7FAFE0020C4E78E
:100C4000003C024008380240961C00080C000020BE
:100C5000040000200448054900680968044AC1F3FB
:100C60008221515CC84070470C00002008380240C7
:100C7000A61C00080448054900680968044AC1F335
:100C80004231515CC84070470C00002008380240D7
:100C9000A61C0008154810B5006810F00C02144896
:100CA00013D01449042A0FD0082A0ED10F4C241F48
:100CB0002268236802F03F025B0207D52068C0F378
:100CC0008810A0FB010106E0084610BD2168C1F3B1
:100CD0008811A1FB00010023FFF7C6FA2168C1F3C8
:100CE0000141491C4900B0FBF1F010BD0838024039
:100CF0000024F400001BB7002DE9F84F04006ED06B
:100D00002078DFF84C93C007A9F104054AD009F117
:100D100004000168C1F38101012908D00068C0F313
:100D2000810002280AD1D9F80000400206D52868BF
:100D3000800337D560680028E1D033E06068B0F503
:100D4000803F10D0B0F5A02F286810D020F480305C
:100D50002860286820F4802028606068A8B1FFF728
:100D60003FFE06460DE0286840F48030F4E740F48A
:100D700080202860F7E700BFFFF732FE801B642861
:100D800073D828688003F7D50CE0FFF729FE0646E4
:100D900005E000BFFFF724FE801B6428F0D8286818
:100DA0008003F7D42078DFF8AC8280074FF0000A88
:100DB0003ED5A748001D016811F00C0F08D000684F
:100DC000C0F3810002280BD1D9F80000400207D4FB
:100DD0002868800716D5E068012800D112E033E1C9
:100DE000E068B8B10120C8F80000FFF7F9FD064639
:100DF00005E000BFFFF7F4FD801B0228C0D828687B
:100E00008007F7D52868216920F0F80040EAC10082
:100E100028600DE0C8F800A0FFF7E2FD064604E0F8
:100E2000FFF7DEFD801B02281FD828688007F7D453
:100E30002078000722D5864F87486169703771B1E5
:100E400001210160FFF7CCFD064604E0FFF7C8FD75
:100E5000801B022809D838688007F7D50EE0C0F853
:100E600000A0FFF7BDFD064605E082E0FFF7B8FDF4
:100E7000801B02287DD838688007F7D42078400787
:100E800068D5DFF8CCB100270BF13C0BDBF8000094
:100E9000C0000BD4DBF8001041F08051CBF80010FB
:100EA000DBF80000012700F0805000906B4E3068A6
:100EB000C00510D4306840F480703060FFF790FDBA
:100EC000009005E0FFF78CFD0099401A022850D8E9
:100ED0003068C005F6D55E4EA0686C3601280FD08C
:100EE0000528306810D020F001003060306820F014
:100EF00004003060A068B8B1FFF772FD00900FE009
:100F0000306840F00100F4E740F004003060F7E79B
:100F1000FFF766FD0099411A41F28830814266D898
:100F200030688007F4D50EE0FFF75AFD009007E027
:100F3000FFF756FD0099411A41F28830814256D898
:100F400030688007F4D42FB1DBF8001021F0805115
:100F5000CBF80010A069C8B33D49091D0968C1F369
:100F6000810102294AD00228504607D0C8F8600003
:100F700000E03CE0FFF734FD04463BE04746C8F89C
:100F80006000FFF72DFD064605E000BFFFF728FDD6
:100F9000801B02282BD828688001F7D4D4E90701E8
:100FA0000843A16A2E4A490802EB0141626A41EAFC
:100FB0008211084394F82C1040EA0161C9F800102E
:100FC00001203866FFF70CFD044606E03EE000BF56
:100FD000FFF706FD001B022809D828688001F7D515
:100FE00034E000BFFFF7FCFC001B022802D90320FD
:100FF000BDE8F88F28688001F4D427E00128F7D0F5
:10100000D9F80000E26900F4800191421CD1226A03
:1010100000F03F01914217D147F6C071626A01406A
:10102000B1EB821F10D1A26A4FF0FF3300F44031C0
:1010300003EB5202B1EB024F06D194F82C1000F0F2
:101040007060B0EB016F01D00120D1E70020CFE745
:101050000438024000004742800E474200700040C2
:101060000000FFFF10B5401EB0F1807F01D30120CA
:1010700010BD4FF0E02460610F21601700F0DDFC2F
:101080000020A06107202061002010BD704770473C
:10109000F8B5016804460868CA684B6910F00F0F7C
:1010A0004FF0000559D003F0010602F49077374362
:1010B00065D0C10705D0D10503D5616C41F00101B0
:1010C0006164410705D5D90703D0616C41F0020185
:1010D0006164810705D5D90703D0616C41F0040133
:1010E0006164010707D502F02001314303D0616C30
:1010F00041F008016164616C00293AD0800604D592
:10110000900602D5204600F049FB20684069616CDA
:10111000C0F38010090700D460B3204600F017FB2D
:1011200020684069400621D52068143050E8001F2F
:1011300021F0400140E80012002AF5D1E06BA8B18F
:1011400072490165E06BFFF701FA002811D0E06BEE
:10115000016D01B0BDE8F040084783060FD5930646
:101160000DD52046BDE8F84000F018BB2046FFF73B
:101170008EFFF8BD2046FFF78AFF6564F8BD266B39
:101180002023012E7ED1C6067CD5D6067AD50868E6
:101190004868009048694FF0020640064DD5E26B62
:1011A000106840684FF480770004000C3AD0A18D9D
:1011B000814237D9E085D069B8422DD020680C3003
:1011C00050E8001F21F4807140E80012002AF5D198
:1011D0002068143050E8001F21F0010140E800129F
:1011E000002AF5D12068143050E8001F21F040019A
:1011F00040E80012002AF5D184F8423025632068C7
:101200000C3050E8001F21F0100140E80012002AC5
:10121000F5D1E06BFFF751F96663A08DE18D401ABF
:1012200081B206E0A18D8142A8D1D069B842A5D192
:1012300066632046FFF72AFFF8BDA08DE18D401AB6
:1012400081B2E08D0028F7D00029F5D020680C305D
:1012500050E8002F22F4907240E80027002FF5D1CB
:101260002068143050E8002F22F0010240E80027E7
:10127000002FF5D184F84230256320680C3050E807
:10128000002F00E006E022F0100240E80023002BCF
:10129000F3D1CDE705062BD5150629D594F84100E5
:1012A0002128C9D1A068B0F5805F01D12069B0B113
:1012B000206A411C2162216800784860E08C401E51
:1012C0000004000CE084B7D12068C16821F08001DF
:1012D000C1602068C16841F04001C160F8BD206A6A
:1012E0000088C0F308004860206A801C2062E5E79F
:1012F0004006F3D55006F1D5CA68204622F04002D8
:10130000CA6084F8413000F0ECF8F8BD41170008DD
:1013100070B5040004D094F84100002510B106E037
:10132000012070BD84F84050204600F023F82420AE
:1013300084F841002068C16821F40051C160204652
:1013400000F08EFA2068016921F490410161206863
:10135000416921F02A0141612068C16841F40051CE
:10136000C1606564202084F8410084F84200656310
:10137000002070BD2DE9F04786B00646142168466E
:10138000FEF7E9FF4D4B316800244D48022503224A
:1013900007274FF000694FF4806A99424AD14849C3
:1013A00014310B6843F010030B60096801F0100161
:1013B0000591016841F002010160016801F002013C
:1013C0000591016841F0010101600068CDE9024228
:1013D00000F0010005908020CDE9000590466946A7
:1013E00004973848FFF7FEF92802CDE90005CDE95A
:1013F0000248694604973448FFF7F4F9344D3348FE
:10140000E5E802094020A5E81104314845F81449EF
:10141000AC61EC612C626C62FFF77AF908B1FFF7FE
:101420004AF8B563002211462520AE63FFF746FB5C
:1014300025203DE0274B99423CD1214910310B68D2
:1014400043F480230B60096801F480210591016851
:1014500041F0040101600068CDE9024200F004009F
:1014600005904FF44060CDE90005694604971A489D
:10147000FFF7B8F9164D194860352860C5E90194A1
:10148000C5E9034A80156C61C5E906404FF4403058
:10149000C5E908042846FFF73BF908B1FFF70BF848
:1014A000F563002211462720AE63FFF707FB2720D4
:1014B000FFF7F6FA06B0BDE8F08700000010014023
:1014C000303802400004024000000240B86402408C
:1014D000A4000020004800400008024028600240AC
:1014E00070477047FEE70000114808B5016841F4F5
:1014F00000110160016801F400110091016841F4DC
:10150000800101600068002200F480000090114614
:101510000C20FFF7D3FA0C20FFF7C2FA0022114685
:101520004620FFF7CBFABDE808404620FFF7B8BADF
:101530003038024030B587B014216846FEF70BFF03
:101540001A48016841F001010160016801F00101E0
:101550000591016841F002010160016801F002019A
:101560000591016841F004010160016801F0040186
:101570000591016841F08001016000680C4D00F0A8
:1015800080004FF4E0540590012221462846FFF7E1
:1015900021FA01210220CDE90210CDE9004169467E
:1015A0002846FFF71FF907B030BD00003038024071
:1015B000001C02400C4810B50A4901604FF4E131AB
:1015C0004160002181600C22C160C0E90412816188
:1015D000C161FFF79DFE002803D0BDE81040FEF773
:1015E0006ABF10BD00100140140000200D4810B566
:1015F0000B4901600C49416000214FF40052C0E9E1
:101600000212D21002610422C0E90521C161FFF774
:101610007FFE002803D0BDE81040FEF74CBF10BD90
:10162000004800405C000020A0860100FEE7FEE7C5
:101630007047000030B5144B1C68656945F04005E3
:1016400065611B68DC6844F01004DC600F4B1C68AB
:10165000256825F0010525601C682568ED07F7D190
:101660001D680B4CAC601C68E0601868016118686C
:1016700042601868016841F48021016018680168BF
:1016800041F00101016030BD5C0000200401002038
:10169000044800407047FFF7A9B9000030B593B087
:1016A00030216846FEF757FE14210CA8FEF753FEC2
:1016B0001D480025016841F080510160006800F07C
:1016C000805011901948016841F480410160006820
:1016D000022400F480401190012000900004019049
:1016E0008001CDE9064006200890A820CDE9090434
:1016F00004200B906846FFF7FFFA08B172B6FEE7C8
:101700000CA90F2081E831004FF4A0500F904FF446
:101710008050109005210CA8FFF702FA002801D094
:1017200072B6FEE713B030BD403802400070004092
:101730000248016841F470010160704788ED00E0E3
:1017400010B5806B0021C185FFF7A1FC10BD0168B9
:101750000C3151E8002F22F4907241E80023002B55
:10176000F5D10168143151E8002F22F0010241E85F
:101770000023002BF5D1016B012909D101680C313F
:1017800051E8002F22F0100241E80023002BF5D190
:10179000202180F8421000210163704708B590F8BD
:1017A0004210222901D0022008BD82684FF48053E4
:1017B0009A4201D1016921B1816A9A421BD04AB192
:1017C0000AE00268816A5268C2F308020A80816AEC
:1017D000891C08E0026972B10268526802F07F0257
:1017E0000A70816A491C8162C18D491E0904090C75
:1017F000C18503D01BE002685268F1E70168CA683E
:1018000022F02002CA600168CA6822F48072CA60AD
:1018100001684A6922F001024A61202180F84210E1
:1018200000214163026B012A03D0FFF759FE00201B
:1018300008BD016301680C3151E8002F22F010024D
:1018400041E80023002BF5D101680A68D20602D5D1
:101850000A6849680091818DFFF718FCE7E70000EE
:1018600070B5044600680169E26821F440511143F3
:1018700001612169A068E269084361691143084375
:101880002168CA6849F20C639A430243CA6020681F
:101890004169A26921F440711143416131492068D5
:1018A000884202D03049884202D1FFF7E3F901E0D3
:1018B000FFF7D0F9E2690023192164253226B2F539
:1018C000004F626828D0A0FB0101930F9200FEF741
:1018D000CBFC0146B0FBF5F06FF01802504301EB72
:1018E000800006EB0010B0FBF5F000F0F002B1FB59
:1018F000F5F002EB0012B1FBF5F06FF0180358435E
:1019000001EB800006EB0010B0FBF5F000F00F00DB
:1019100021681044886070BDA0FB010192185B41F2
:10192000FEF7A2FC0146B0FBF5F00201B1FBF5F0B9
:101930006FF01803584301EB800006EBC000B0FBCA
:10194000F5F000F0F80002EB4002B1FBF5F058436F
:1019500001EB800006EBC000B0FBF5F000F00700E3
:10196000D6E7000000100140001401400148FFF7D5
:101970008FBB000014000020294818B400680168DB
:10198000890604D501684068009018BC7047254955
:101990000968C906F9D501684068009022480268C4
:1019A00011684FF024030C032049146824F001044B
:1019B000146004686268C2F1240292B20A80636013
:1019C00015D401680B6843F400230B6000680168BC
:1019D00041F001010160122A05D0192AD5D114491C
:1019E00001F11A0014E0124901F11A0014E0114942
:1019F0008B6A23F400238B620068016841F00101C7
:101A000001600B483E30122A05D0192ABDD1084981
:101A100018BC00F0ABB8064918BC00F031B80000A3
:101A20005C0000200048004004010020100000205D
:101A30006401002000600240FEE70907090E00284B
:101A400004DB00F1E02080F80014704700F00F0084
:101A500000F1E02080F8141D7047000010B500214F
:101A60004FEA010400EB4102B2F900300A33142BB3
:101A700000D81480491CC9B20429F3D310BD00005A
:101A800070B50D46040055D0002D53D020786178F4
:101A900040EA0120C0F30A00A0F580602880607849
:101AA000A178C00840EA4110C0F30A00A0F58060A8
:101AB0006880A078E178800940EA8100217940EAD5
:101AC0008120C0F30A00A0F58060A88020796179A8
:101AD000400840EAC110C0F30A00A0F58060E88029
:101AE0002846FFF7BBFF6079C0F301106872607988
:101AF00080092872207C617C40EA01200E4901FAAD
:101B000080F06881A079E17940EA01202882207A7A
:101B1000617A40EA01206882A07AE17A40EA0120F5
:101B2000A882207BA875607BE875A07BE17B40EAFA
:101B30000120288370BD000000FCFFFFFEF75EFF60
:101B4000FFF7ACFDFFF7F6FCFFF7CEFCFFF732FD29
:101B5000FFF74CFD00F002F8FEE7000002492422E6
:101B6000A1F12400FFF766BDA20100202DE9F0419C
:101B70000C46050072D0002C70D028780F287FD139
:101B80006878A97840EA0120C0F30A00A0F58060D7
:101B90002080A878E978C00840EA4110C0F30A0024
:101BA000A0F2FF30404260806879A979400840EA9D
:101BB000C110C0F30A00A0F58060A080E878297900
:101BC000800940EA8100697940EA8120C0F30A0077
:101BD000A0F2FF304042E0802046FFF73FFFA879A7
:101BE000E979000940EA0110C0F30A03E879297A8B
:101BF000C00940EA4100697A40EA4120C0F30A0185
:101C0000687AAA7A800840EA8210AA7AC0F30A00A9
:101C1000ED7A520942EAC502A3F58063A0F580601F
:101C2000A1F58061A2F58062002B01DD022300E0B6
:101C300001232373002A01DD022200E00122E27366
:101C40004FF496760222774201230325B14201DD4B
:101C5000627305E0B94202DA637301E010E0657374
:101C6000B04201DDA27304E0B84201DAA37300E0E0
:101C7000A573002020826082A082A075E075208379
:101C8000BDE8F0814FF04070E1EE100A70470006A9
:101C900010160006101600000000000000000102EF
:101CA0000304060708090000000001020304000005
:101CB000D01C00080000002014000000C40100082F
:101CC000E41C00081400002014080000E0010008D3
:101CD0000100000010000000000000000024F400DB
:041CE0000000000000
:040000050800018965
:00000001FF
